:020000040800F2
:100000000030002075210008C5210008C521000826
:10001000C5210008C5210008C52100080000000016
:100020000000000000000000000000009111000826
:10003000C521000800000000951100089911000872
:10004000C5210008C5210008C5210008C5210008F8
:10005000C5210008C5210008C5210008C5210008E8
:10006000C5210008C5210008C52100089D11000810
:10007000A1110008A5110008A9110008C521000858
:10008000AD110008C5210008B1110008C521000804
:10009000C5210008C5210008C5210008C5210008A8
:1000A000B5110008C5210008C5210008C5210008B8
:1000B000C5210008C521000800000000C521000876
:1000C000C52100080000000000000000C521000854
:1000D00000000000C5210008B9110008C521000872
:1000E000C5210008C5210008000000000000000034
:1000F0000000000000000000000000000000000000
:1001000000000000000000000000000000000000EF
:100110000000000000000000C5210008BD1100081B
:1001200000000000000000000000000000000000CF
:1001300000000000000000000000000000000000BF
:10014000C5210008C911000800000000C5210008F1
:10015000C5210008C5210008C5210008C5210008E7
:10016000C5210008C52100080000000000000000B3
:10017000000000000000000000000000000000007F
:0801800000000000C521000889
:100188000348044B834202D0034B03B1184770471E
:100198000C0000200C000020000000000548064B61
:1001A8001B1AD90F01EBA301491002D0034B03B16D
:1001B800184770470C0000200C00002000000000C9
:1001C80010B5064C237843B9FFF7DAFF044B13B197
:1001D8000448AFF300800123237010BD0C000020F9
:1001E800000000002022000808B5054B1BB1054996
:1001F8000548AFF30080BDE80840FFF7CFBF00BF58
:10020800000000001000002020220008402918D912
:10021800B1F5805F08BF062104D0B1F5807F14BF17
:10022800082104210B4A0C4B12F801C0595C183004
:10023800042250F80C308A4023EA020340F80C30BC
:100248007047102908BF0221ECD0013918BF0121DD
:10025800C900E7E7382200084422000810B54FF02B
:10026800007393FAA3F3B3FA83F301F0007E2EFA36
:1002780003FE143001F0F87150F82E404FF0F87377
:1002880093FAA3FCBCFA8CFC93FAA3F3B3FA83F3B6
:1002980021FA0CFCD940072303FA0CF38A4024EA1C
:1002A80003031A4340F82E2010BD00BF00207047FA
:1002B8002D4A136823F0070343F0020310B51360B7
:1002C800136803F00703022BFAD1284B1A6842F08F
:1002D80001021A601A689207FCD51968234A21F0AE
:1002E800F80141F080011960596821F4741141F452
:1002F80060115960D96A21F00F01D962196841F07B
:100308008071196013689B01FCD55368174C23F062
:10031800F0035360536823F4E06343F4806353604D
:10032800536823F460535360536823F0030343F086
:1003380002035360636803F00C03082BFAD10C48DE
:1003480001F0F0F9002000F055FF08B172B6FEE7A1
:10035800236B23F480732363E36A23F4F87343F471
:100368008073E36210BD00BF00200240001002400D
:100378000090D0032DE980480024B9B000F08CFF2C
:10038800FFF796FFCDE92E44CDE93044CDE932445C
:10039800BB4D8DF8A3406B69BA4EBB4843F40023AC
:1003A8006B616B6903F400231793179B6B6943F424
:1003B80080036B616B6903F480031893189B6B6966
:1003C80043F400336B616B6903F400331993199B91
:1003D8006B6943F480236B616B6903F480231A9380
:1003E8004FF0904B1A9B4FF470724FF48073B262C7
:1003F800CBF828304169F02393FAA3F34FF0020AAF
:10040800B3FA83F321F0F0010AFA03F30B434361D3
:10041800F1684FF4005898FAA8F3B3FA83F34FF051
:1004280003095B0009FA03F321EA030398FAA8F128
:10043800F360316898FAA8F3B3FA83F35B0009FA1A
:1004480003F321EA030398FAA8F10127336026A8E9
:10045800ADF8A070CDE926848DF8A2A001F068F966
:100468004FF470722EA93046CDE92E27CDE93044DD
:10047800329401F011FA4FF480732EA95846CDE951
:100488002E37CDE93044329401F006FA4FF4805209
:1004980030462EA92E922F94329401F0FDF94FF494
:1004A8005C732EA979482E932F94329401F0F4F9B5
:1004B8006B69774E3B436B616B693B40754F169395
:1004C800169BF868C0F30220FFF7F0FE0001C3B2E4
:1004D80086F80B334FF400633360F868C0F30220EA
:1004E800FFF7E4FE0001C3B24FF4805286F80C33E4
:1004F8003260F868C0F30220FFF7D8FE0001C3B2EB
:1005080086F80D33C6F80080F868C0F30220FFF7BC
:10051800CDFE0001C3B286F80E334FF4804333603A
:10052800F868C0F30220FFF7C1FE0001C3B286F8E5
:1005380010334FF480333360CDE92E44CDE9304495
:10054800CDE932442A9434942994EB6943F4003376
:10055800EB61EB6903F400331493149B6B6943F468
:1005680000336B616B6903F4003315930C25159BFD
:100578002695072326A958462B93CDE927A901F0EC
:100588008BF9454BDA6E22F4804222F01002DA66CB
:10059800DA6E22F44052DA66DA6E42F02002DA6647
:1005A800DA6E22F04002DA66DA6E42F08002DA662B
:1005B800DA6E22F44072DA66DA6E22F44062DA66A3
:1005C800F868C0F30220FFF771FE0001C3B286F895
:1005D800263340237360314832954FF4E1332EA916
:1005E800CDE92F44CDE9334431942E9301F060FDD9
:1005F8004FF0402202F5816353E8003F23F4806303
:1006080002F5816141E80034002CF3D1234B1C4DE5
:100618005A68214E224FDFF87890DFF8888022F45C
:1006280090425A609A6822F02A029A601A6842F048
:1006380001021A60CDE92644CDE92844CDE93044C9
:10064800CDE93244EB6943F00053EB61EB6903F009
:1006580000531293129B6B6943F400336B616B690F
:1006680003F400331393139B03232F932EA93023F2
:100678004FF090402E9301F00FF9336B024A13E0CC
:100688000010024000080048000001400004004833
:1006980000E100E000ED00E00000024000440040FE
:1006A8000074004000010050BE4923F4804323F049
:1006B800100343F010033363336B43F44053336345
:1006C800336B43F020033363336B23F0400333630E
:1006D800336B43F080033363336B23F4407343F489
:1006E80080733363336B23F4406343F48063336371
:1006F800136843F400531360736C23F4804323F0AE
:10070800100343F010037364736C43F44053736431
:10071800736C43F020037364736C23F040037364B9
:10072800736C43F080037364736C23F4407343F475
:1007380080737364736C23F4406343F4806373645D
:10074800136843F480431360384626AACDE926444B
:10075800299401F07DFA3B68934943F004033B6018
:1007680026AA02233846299301F072FA3B6843F41B
:1007780080233B60CDE92644CDE92844CDE93044C7
:10078800CDE93244EB69894F43F08063EB61EB6953
:1007980003F080631093109B6B6943F400336B6123
:1007A8006B6903F400331193119B03222EA9402394
:1007B8004FF090402F922E9301F06EF8F8687C4F1E
:1007C8007849C0F30220FFF771FD0001C3B289F830
:1007D80037334FF40003C9F804300223299326AABB
:1007E800382338462693279401F032FA3B6823F0E1
:1007F80004033B6020231A4621462EA8CDE9204455
:10080800CDE92244249401F0DAFCCDE92644CDE96F
:100818002844CDE92A44EA6942F00102EA61EA691A
:1008280002F001020D924FF080470D9A4FF4F062EA
:1008380020A9ADF880203846FF22229201F040FA24
:100848003A6822F080023A60BA6822F4A03222F0B4
:100858000702BA60BA6942F008026023BA6101214E
:100868002EAA38462E93CDE92F44CDE9314401F024
:100878006DFA38460121FFF7C9FCBA6942F40062F3
:10088800BA6110212EAA384601F060FA38461021C4
:10089800FFF7BCFCFA6942F00802FA614FF4807174
:1008A8002EAA384601F052FA38464FF48071FFF705
:1008B800ADFC7A6822F070027A60BA6822F0800291
:1008C800BA606A69394F42F400326A616A6902F4AF
:1008D80000320E920E9A6A6942F480226A616A694D
:1008E8002A9402F480220F924FF0010A0F9ACDF851
:1008F800ACA0022326A948F202024FF090402793A9
:100908002692CDE9284400F0C7FF022326A94FF418
:10091800806228482692CDE92734CDE92944CDF8CC
:10092800ACA000F0B9FFCDE92E44CDE93044CDE9C3
:100938003244CDE92844CDE92A4434946A691D48F3
:1009480042F480226A616A69032302F480222793B1
:100958000C9226A94FF400630C9A269300F09CFF92
:10096800F868C0F30220FFF7A1FC0001C2B202231D
:1009780089F841232EA9C9F808304FF480020E489F
:100988003092CDE932442F94349401F049F9CDE9FD
:100998002044CDE92644CDE92844CDE92A44CDE9CF
:1009A80030440BE0010010021200431500ED00E096
:1009B800009800400004004830000140CDE932446E
:1009C80022946A69C84842F080526A616A6902F0F2
:1009D80080520992099A6A6942F400226A616A6936
:1009E80002F400220A920A9A6A6942F480226A6131
:1009F8006A69202302F480222E930B9203232EA9E6
:100A08000B9A2F9300F048FF03232EA90422B7481E
:100A18002F932E92329400F03FFFF26922F4804225
:100A280022F01002F261F26922F44052F261F26996
:100A380022F02002F261F26922F04002F261F269CA
:100A480042F08002F261F26922F4407242F480724C
:100A5800F261F26922F4406242F48062F261F8685D
:100A6800C0F30220FFF722FC0001C2B289F812236A
:100A78004FF48022C9F8002020A94046CDE920443F
:100A8800229400F0E9FF4FF40052299226A94FF46E
:100A9800805240462B92CDE926442894CDF8A8A050
:100AA80000F0F4FFD8F8082022F04052C8F80820D7
:100AB800D8F8082022F0104222F03F0242F080527B
:100AC800C8F808204FF4407B9BFAABF24FF0A047E0
:100AD8004046D7F83021864922F4F86242F4307251
:100AE800C7F830210522FFF7B9FBD8F8B02020233A
:100AF80042F40062C8F8B02021461A4626A8ADF88C
:100B08006E4001F05CFB214628222EA801F057FB1D
:100B1800CDE92044CDE92244CDE92444AA69754BA6
:100B2800DFF8D88142F40062AA61AA6902F400627F
:100B38000792079AD868C0F30220FFF7B7FB0001B5
:100B4800C2B289F818234FF08072C9F800201F221A
:100B58001BA9ADF86C20404640F6FF721D92CDE906
:100B68001E441C9401F0ACF8D8F80020624842F00A
:100B78008002C8F80020D8F8082022F4A03222F019
:100B88000702C8F80820D0F81C1C41F40061C0F81E
:100B98001C1C602126AACDE9261440464FF480513A
:100BA800CDE92844CDE92C442A9401F0CFF84046F9
:100BB8004FF48051FFF72AFBD8F8042022F0700286
:100BC800C8F80420D8F8042022F47002C8F80420D9
:100BD800D8F8082022F08002C8F808204FF4005204
:100BE800CDE932242EA94FF0007240463592CDE966
:100BF8002E44CDE9364430948DF8C440ADF8C64053
:100C0800349401F01DFA6A69DFF8F48042F4003286
:100C18006A616A6902F400320892089A4FF4006126
:100C28000222CDE9212420910B2220A94FF09040E7
:100C38002592CDE9234400F02FFECDE91B44CDE9F0
:100C48002644CDE92844CDE92A44CDE92044CDE91C
:100C58002244CDE93044CDE932441D946A6942F01A
:100C680080526A616A6902F080520492049A6A6941
:100C780042F400226A616A6902F400220592059A28
:100C88006A6942F480226A616A6902F480220692E3
:100C9800069A0F200322CDE92E022EA9124800F051
:100CA800FBFD03222F922EA942F203020F482E9237
:100CB800329400F0F1FDB2680E4B22F4804222F02B
:100CC8001002B260B26822F44052B260B26842F0D8
:100CD8002002B260B26822F04002B260B26842F00C
:100CE8008002B2600EE000BF00080048000400481F
:100CF8000008302E00ED00E000200140002C0140EB
:100D080000030050B26822F4407242F48072B2606C
:100D1800B26822F4406242F48062B260D868C0F3DC
:100D28000220FFF7C3FA0001C2B289F812234FF478
:100D38008022C9F800201BA93846CDE91B441D9420
:100D480000F08AFE4FF480522B924FF40052CDE906
:100D5800292A26A90722384627922694289400F0A3
:100D680095FE20A94046CDE9204400F04BFEBA6824
:100D780022F04052BA60BA6822F0104222F03F02D4
:100D880042F08052BA609BFAABF23A6BCE4922F439
:100D9800F86242F4C0723A6338460522FFF75EFAF9
:100DA800D7F8B02022F04002C7F8B0209BFAABF287
:100DB8003A6BC64922F4F83242F4E0423A633846C4
:100DC8000522FFF74BFAD7F8B02022F08002C7F8C7
:100DD800B0209BFAABF23A6BBD4922F4F80242F418
:100DE80000123A6338460522FFF738FAD7F8B020E0
:100DF80022F48072C7F8B0209BFAABF23A6BB5497F
:100E080022F0F85242F010623A6338460522FFF7A2
:100E180025FAD7F8B02022F40072C7F8B0209BFA60
:100E2800ABF24FF48076B2FA82F226FA02F292001E
:100E38003A44A949106B20F01F0040F00B001063E2
:100E480005223846FFF70AFAD7F8B02022F40062E4
:100E5800C7F8B0209BFAABF2B2FA82F226FA02F295
:100E680092003A449D49106B20F4F86040EA0B0068
:100E7800106305223846FFF7F1F9D7F8B02022F4BD
:100E88008052C7F8B0209BFAABF2B2FA82F226FA87
:100E980002F292003A449249106B20F4F83040F480
:100EA8005040106305223846FFF7D8F9D7F8B0202C
:100EB80022F40052C7F8B0209BFAABF2B2FA82F2E1
:100EC80026FA02F1890039440322086B854E20F482
:100ED800F80040F48000086338468349FFF7BEF9FC
:100EE800D7F8B02022F48032C7F8B020D8F808200C
:100EF80022F0E07242F40002C8F80820CDE92E443E
:100F0800CDE931443094EA69DFF8E88142F0020221
:100F1800EA61EA6902F002024FF6FF7703922EA90E
:100F28003046039A309700F0CBFE20231A463368E8
:100F380023F080033360B36823F4A03323F007035E
:100F4800B360736823F070037360B36823F08003A1
:100F5800B360214626A8CDE91B44CDE91D441F9462
:100F680001F02DF9282221462EA801F028F9CDE913
:100F78002044CDE92244CDE92444AB6943F48023DD
:100F8800AB61AB691D9703F480230193019B1BA9F7
:100F98004FF474734046ADF86C3000F091FED8F809
:100FA800003006F59E3623F08003C8F80030D6F8E6
:100FB8001838602143F00803C6F8183826AA42F208
:100FC8001073CDE92614404651462993CDE92A44A9
:100FD800CDE92C44289400F0B9FE51464046FFF76D
:100FE80015F94FF400522EA94046CDE92E4432920D
:100FF80030948DF8C440ADF8C6403394379401F06E
:101008001FF86B6943F400336B616B6903F40033B9
:1010180002930222029B2192802320A94FF0904044
:10102800CDE92244CDE9244A209300F035FCCDE9EE
:101038002644CDE9284431942A943094AB692B484E
:1010480043F48033AB61AB6903F480331B931B9B80
:101058006B6943F480236B616B6903F480232093ED
:101068000222209B2F924FF480432EA92E93CDE984
:1010780032AA00F011FC1E4BD868C0F30220FFF71B
:1010880015F90001C3B289F818334FF08073C9F815
:10109800003026A9F4233046CDE92747CDE9294475
:1010A800ADF8983000F00CFE336823F0800333600D
:1010B800B36823F4A03323F00703B360736823F005
:1010C80070037360B36817E0400020198000501D5A
:1010D800000180210002B0250008302E0010603287
:1010E8000020903600040040000021C3000400489E
:1010F80000ED00E00048014023F08003B360B369CD
:1011080023F0030343EA0A03B361B36923F00C0332
:10111800B361B36943F0F003B361336A23F00A03A0
:101128003362CDE92E44CDE931443094EB69104C5B
:1011380043F01003EB61EB6903F0100331222693AF
:101148002EA92046269B309200F0BAFD236823F092
:1011580080032360636823F0700343F02003636017
:10116800A36823F08003A36000F0FEFFFEE700BF42
:1011780000100040034B02689A4200D0704700F00C
:101188009DB800BF00140040704700BF704700BF03
:10119800704700BF704700BF704700BF704700BF6F
:1011A800704700BF704700BF704700BF704700BF5F
:1011B800704700BF014800F061B900BF2800002057
:1011C800704700BF0A4B9A6942F001029A619A6916
:1011D80082B002F001020092009ADA6942F080526D
:1011E800DA61DB6903F080530193019B02B0704719
:1011F80000100240234B70B5DA6942F02002DA6130
:10120800DB6988B003F020030293054601A903A80F
:10121800029B00F077F8069BD3B900F05BF8034611
:10122800194A1A4C1A49A2FB03239B0C013B0022C2
:10123800C4E90013204640F2E7332261A260A261AC
:10124800E36000F02DFA064630B1304608B070BDB4
:1012580000F040F84300E3E7204600F0D5F80646E2
:101268000028F2D1372000F0BFF80F2D01D9012650
:10127800EBE732462946372000F078F8054B1D6029
:10128800E3E700BF0010024083DE1B432800002074
:101298000014004004000020074A08B5136843F012
:1012A80010031360032000F04FF80020FFF7A2FF9F
:1012B800FFF788FF002008BD00200240034A044BC6
:1012C80011681B780B441360704700BF740000203E
:1012D80000000020084B4FF4E0625B6892FAA2F22B
:1012E800B2FA82F203F4E06304490548D340006887
:1012F800CB5CD840704700BF001002406022000855
:10130800080000200E4B0F2202605A6802F0030208
:1013180042605A6802F0F00282605A6802F4E062A1
:10132800C2605B68DB0810B403F4E063054C03613A
:1013380023685DF8044B03F007030B60704700BF98
:1013480000100240002002400749CA6803024FF615
:10135800FF0003F4E0630240134343F0BF6343F428
:101368000033CB60704700BF00ED00E01C4BDB682A
:10137800C3F3022300B5C3F1070EBEF1040F03F156
:10138800040C28BF4FF0040EBCF1060F1BD9033B19
:101398004FF0FF3C0CFA03FC22EA0C024FF0FF3C32
:1013A8000CFA0EFC21EA0C019940002841EA0201DE
:1013B8000CDB00F16040090100F56140C9B280F81A
:1013C80000135DF804FB00221346E7E7054B00F025
:1013D8000F0009010344C9B219765DF804FB00BF88
:1013E80000ED00E0FCEC00E0002807DB4109044ABE
:1013F80000F01F000123834042F82130704700BFEE
:1014080000E100E0704700BF90F83D30012B1AD191
:1014180003681349022280F83D20DA688B4242F0C3
:101428000102DA6011D0B3F1804F0ED00D4A934219
:101438000BD002F59E32934207D01A6842F001029F
:1014480000201A607047012070479968064A0A40D0
:10145800062A02D0B2F5803FEFD10020704700BFC6
:10146800002C01400004004007000100704700BF45
:10147800704700BF704700BF704700BF03681A6914
:10148800910710B5044602D5DA68920768D41A693C
:10149800520702D5DA6850074FD41A69110702D5E6
:1014A800DA68120737D41A69D00602D5DA68D10685
:1014B8001ED41A69D20702D5DA68D00769D41A6926
:1014C800110602D5DA6812066BD41A69D00502D55E
:1014D800DA6811066DD41A69520602D5DA68500620
:1014E8006FD41A69910602D5DA68920649D410BDFC
:1014F8006FF01001082219612277DB6913F4407F2D
:1015080020466FD1FFF7B2FF2046FFF7B3FF002256
:1015180023682277CDE76FF008010422196122774A
:10152800DB699B0720465AD1FFF7A0FF2046FFF74B
:10153800A1FF002223682277B5E76FF00401022299
:10154800196122779B6913F4407F204644D1FFF745
:101558008DFF2046FFF78EFF0022236822779CE745
:101568006FF002010122196102779B69990730D156
:10157800FFF77CFF2046FFF77DFF002223682277D4
:1015880085E76FF0200220461A61BDE8104000F0A0
:10159800B9B86FF001021A612046FFF7EBFD236826
:1015A8008DE76FF080021A61204600F0ADF82368DD
:1015B8008BE76FF480721A61204600F0A7F8236861
:1015C80089E76FF040021A612046FFF755FF23684C
:1015D80087E7FFF74DFFD0E7FFF74AFFBCE7FFF7C4
:1015E80047FFA6E7FFF744FF91E700BF2B4A0368D0
:1015F800904230B447D0B0F1804F1CD0A2F594325D
:10160800904218D002F59E32904229D002F58062AD
:10161800904225D002F58062904221D04D698C68B5
:101628000A6823F080032B4303600123C4628262AB
:1016380030BC436170474A68CC6823F07003134399
:1016480023F440734A69234323F0800313438C68CF
:101658000A6803600123C462826230BC4361704738
:10166800CC684A6923F44073234323F0800313436F
:1016780003608B68C3620B6883620B690363012391
:1016880030BC436170474C68CA6823F07003234339
:1016980023F4407313434A69E7E700BF002C014075
:1016A80070B310B590F83D30044603F0FF0213B351
:1016B8002146022384F83D3051F8040BFFF796FFCA
:1016C800012384F8483084F83E3084F83F3084F8A9
:1016D800403084F8413084F8423084F8433084F84C
:1016E800443084F8453084F8463084F8473084F82C
:1016F8003D30002010BD80F83C20FFF783FED7E77F
:1017080001207047704700BF704700BF704700BF97
:10171800034AD2F8883043F47003C2F8883070471F
:1017280000ED00E0014B1860704700BF0800002082
:1017380010B40346007AB8B11A685ABB10465A6802
:101748002AB3597A012967D0022941D0002933D018
:1017580001209B7ADBB1022B00F08180032B76D02D
:10176800012B6BD0012012E04A4A1C68116821EA5B
:1017780004011160516821EA040151605C68116A32
:1017880021EA04011162536A23EA040353625DF8F3
:10179800044B7047587A012834D0022820D040B32F
:1017A8000120997A0029CAD002293ED0032968D09D
:1017B80001295DD00120C2E701F1804101F58231A4
:1017C8004C6A24EA02044C620C6A14430C62C0E7B7
:1017D80030490C6A14430C624C6A14434C62B8E7F3
:1017E8002C490C6814430C604C68144300204C606E
:1017F800D7E728494C6824EA02044C600C68144373
:101808000C60CEE723490C6824EA02040C604C689B
:10181800144300204C60C4E71E490C6A24EA020401
:101828000C624C6A14434C6293E71A498C6824EAA8
:1018380002048C60CC682243CA6080E7154BD96AE1
:1018480021EA0201D962996A0A439A629FE7114B19
:10185800996A11439962D96A0A43DA6297E70D4B8C
:10186800996A21EA02019962D96A0A43DA628EE723
:101878000849CC6824EA0204CC608C6822438A6058
:101888005DE704498C6814438C60CC682243CA60C5
:1018980055E700BF000401402DE9F04F0C6894FAA9
:1018A800A4F2B2FA82F234FA02F300F08C804FF01C
:1018B800010E4FF0030C4FF00F0BE74318E0D0F880
:1018C800008093FAA3F9B9FA89F993FAA3F3B3FA62
:1018D80083F34FEA49090CFA09F95B0028EA090879
:1018E8009D4048EA05050560013234FA02F36AD0E2
:1018F8000EFA02F32340F7D04D6805F1FF38B8F12E
:10190800010F3BD9D0F80C9093FAA3F8B8FA88F8ED
:1019180093FAA3FA0E69BAFA8AFA4FEA48080CFA57
:1019280008F84FEA4A0A29EA080906FA0AF849EAC9
:101938000809022DC0F80C90C1D193FAA3F8B8FA9F
:1019480088F8B8F1070F41DCD0F820A093FAA3F883
:10195800B8FA88F893FAA3F94E69B9FA89F94FEAFF
:1019680088080BFA08F84FEA89092AEA080806FAEB
:1019780009F948EA0908C0F82080A0E7D0F808A0CB
:1019880093FAA3F8B8FA88F893FAA3F98E68B9FA23
:1019980089F94FEA48080CFA08F84FEA490906FAA3
:1019A80009F92AEA080848EA0908C0F80880D0F8BE
:1019B8000480CE6807EA080806FB04F948EA090823
:1019C800C0F804809EE70020BDE8F08FD0F824A07E
:1019D8004FEA132999FAA9F8B8FA88F899FAA9F9EF
:1019E8004E69B9FA89F94FEA88080BFA08F84FEAFC
:1019F80089092AEA080806FA09F948EA0908C0F82C
:101A080024805CE7124B4FF0A04292689B68134316
:101A180013F001030CD130B44C68024654B9806805
:101A28000C4B096803400B432046936030BC704759
:101A38000120704785681846064B2B4023430C68E5
:101A48002343D1E9024123430B4330BC93607047E1
:101A580000010050E030FCFF836813F0010312D14D
:101A68000246C06810B420F4804C1846D1E90043FF
:101A7800896823432CF0380C0B4343EA0C035DF8C8
:101A8800044BD36070470120704700BF8268D307BA
:101A98001AD40E4A0346C06810B402404C6808685D
:101AA80002430CB188680243C8680243D1E90401C3
:101AB80002430A43DA601A6B22F00F022243002025
:101AC8005DF8044B1A637047012070473CC0F0FF73
:101AD8001E4A536803F00C03082B10B41AD01C4B91
:101AE8001A4A036051681B4CC1F30311615C1A4C1C
:101AF800CB4043605168C1F30221615C23FA01F1D4
:101B080081605268C2F3C222A25C5DF8044BD340E4
:101B1800C360704751680E4C104B11F4803F18BFDA
:101B28002346D16A52684FF4701494FAA4F4B4FAB4
:101B380084F402F47012E24001F00F010232013124
:101B4800B3FBF1F302FB03F3CAE700BF0010024046
:101B580000127A00502200086022000800093D00A7
:101B6800114A536803F00C03082B01D00F48704743
:101B780051680E4B0E4811F4803F18BF1846D16AC1
:101B880053684FF4701292FAA2F2B2FA82F203F496
:101B98007013D340023301F00F020132B0FBF2F0B0
:101BA80003FB00F0704700BF0010024000127A00EB
:101BB80000093D00C8B910B5154C236B03F00303A9
:101BC800022B1FD0032B16D0012B10D0FFF7C8FF14
:101BD800626863680F4C1049C2F30312C3F302230F
:101BE800A25CCB5CD040D84010BD00207047BDE857
:101BF8001040FFF7B5BF2068084B10F0020018BF6F
:101C0800184610BD206AC0F34000C00310BD00BFD5
:101C180000100240502200086022000800127A00DA
:101C28000368002B0FDB30B48B680D694A690468C0
:101C380089692B431343054A0B432240134303602E
:101C480030BC002070470120704700BF8F43B3FFAE
:101C580010B401F0100104680123844603FA01F06E
:101C6800A04328D0536883B918461368D268DCF8B3
:101C780000401343FA228A4024EA02028B401343AD
:101C88005DF8044BCCF8003070471468DCF80000AD
:101C980023439468D2682343134340F6FA728A4078
:101CA80003FA01F120EA02030B4300205DF8044B1C
:101CB800CCF80030704718465DF8044B704700BFF9
:101CC800214A0368904230B438D0B0F1804F15D023
:101CD800A2F59432904211D002F59E32904221D062
:101CE80002F5806290421DD002F58062904219D0C0
:101CF8008C680A880360C46282620CE04A68CD6816
:101D08008C6823F07003134323F440730A882B4331
:101D18000360C4628262436943F00103436130BCDB
:101D280000207047CA6823F44073134303608A682D
:101D38000B88C26283620B690363ECE74C68CA686C
:101D480023F070032343EEE7002C0140B1F5805FD8
:101D580030B4034600F0FB8047D8102900F02B81EF
:101D6800B1F5807F7BD1016A156921F48071016228
:101D7800016A4068DC6921F4007141EA052124F414
:101D88008034156824F073042C43556821F480715D
:101D980041EA0521A94DAB420BD005F5A055AB4250
:101DA80007D005F58065AB4203D005F58065AB42E9
:101DB80013D1556921F4006141EA8521956920F420
:101DC800805040EA0510956821F4806141EA852138
:101DD800D56920F4005040EA4510D2685860DC61AB
:101DE8000020DA6330BC19627047B1F5803F7AD0C1
:101DF800B1F5801F74D1016A146821F48011016261
:101E0800016A406D20F0807020F4E04040EA042030
:101E1800146921F4001141EA0451546821F4801135
:101E280041EA0451854CA3420BD004F5A054A342C7
:101E380007D004F58064A34203D004F58064A3426C
:101E480006D15C68956924F4802444EA85245C60A2
:101E5800D268586530BC0020DA65196270470129DC
:101E68003ED1016A156921F001010162016A4068E9
:101E78009C6921F00201294324F48034156824F078
:101E880073042C43556821F0010129436B4DAB4283
:101E98000BD005F5A055AB4207D005F58065AB42E0
:101EA80003D005F58065AB4212D1556921F00801D0
:101EB80041EA8501956920F480702843956821F0EE
:101EC800040141EA8501D56920F4007040EA450023
:101ED800D26858609C6100205A6330BC1962704710
:101EE800012030BC7047016A146821F48031016216
:101EF800016A406D20F4803020F07000204314699E
:101F080021F4003141EA0441546821F4803141EA66
:101F180004414A4CA3420BD004F5A054A34207D075
:101F280004F58064A34203D004F58064A34206D17B
:101F38005C68956924F4803444EA05245C6058653B
:101F4800D268986D9A65002030BC19627047016AA2
:101F5800146921F480510162016A4568C06921F45D
:101F6800005141EA043120F08070146820F4E64002
:101F780040EA0424506821F4805141EA00312F4896
:101F880083420BD000F5A050834207D000F5806053
:101F9800834203D000F58060834204D1906925F420
:101FA800804545EA8015D2685D600020DC611A64CE
:101FB80030BC19627047016A156921F0100101628D
:101FC800016A40689C6921F0200141EA051124F06A
:101FD8008074156824F4E64444EA0524556821F021
:101FE800100141EA0511154DAB420BD005F5A0557E
:101FF800AB4207D005F58065AB4203D005F5806597
:10200800AB4213D1556921F0800141EA85119569E8
:1020180020F4806040EA8500956821F0400141EA9B
:102028008511D56920F4006040EAC500D26858607F
:102038009C6100209A6330BC19627047002C0140F3
:1020480010B4D1E901340A7B224322F480620C687F
:102058001A4322F400622243CB890C6922F480528D
:10206800134323F400534A6A234323F4404313439E
:102078000E4A904204D043645DF8044B0020704738
:102088004C690A6A23F47023234323F470038C6990
:10209800134323F08073CA69234323F00073134367
:1020A80043645DF8044B0020704700BF002C0140DA
:1020B80030B50446006810F0010085B021D1CA6827
:1020C8004B680D4613432A6921681343AA691343D1
:1020D800214A0A40134323606368AA6823F44053E3
:1020E80013436360A3686A6923F4407313431B4A6C
:1020F800A360944208D01A4B9C4218D0194B9C42BA
:1021080015D0012005B030BDFFF754FD0028F8D0E8
:102118002A68002AF5D0AB69B3F5004F0CD000EB64
:102128005203B3FBF2F39BB2E3600020EAE7684690
:10213800FFF7CEFC0298E9E753084FF6F07103EB7E
:102148004003B3FBF2F303EA0102C3F34203134370
:10215800E3600020D6E700BFF369FFEF00380140D5
:102168000044004000480040FEE700BFDFF834D0DC
:102178000D480E490E4A002302E0D458C4500433D7
:10218800C4188C42F9D30B4A0B4C002301E01360AE
:102198000432A242FBD3FFF7BBFA00F019F8FEF7AE
:1021A800E9F8FEE700300020000000200C000020C5
:1021B800702200080C00002078000020FEE702448E
:1021C8000346934200D1704703F8011BF9E700006A
:1021D80070B50D4D0D4C641BA4100026A64209D104
:1021E8000B4D0C4C00F018F8641BA4100026A642F6
:1021F80005D170BD55F8043B98470136EEE755F810
:10220800043B98470136F2E7682200086822000874
:10221800682200086C220008F8B500BFF8BC08BCAA
:102228009E467047F8B500BFF8BC08BC9E4670478C
:10223800000000000404043C3C000000000008000A
:102248000000080008000000000000000000000076
:102258000102030406070809000000000102030444
:04226800F101000878
:04226C00C90100089C
:0C227000010000001000000000127A00C5
:040000050800217559
:00000001FF
